:020000040800F2
:1000000000180020E15A0008DF5A0008DD5A0008F5
:1000100000000000000000000000000000000000E0
:10002000000000000000000000000000DF5A00088F
:100030000000000000000000DF5A0008DF5A00083E
:10004000DD5A0008DD5A0008AD0B0008DD5A000833
:10005000DD5A0008E10B0008DD5A0008EF0B00082C
:10006000DD5A0008DD5A0008DD5A0008DD5A000894
:10007000DD5A0008DD5A0008DD5A0008F90A0008B8
:10008000DD5A0008DD5A0008DD5A0008DD5A000874
:10009000DD5A0008DD5A0008DD5A0008DD040008BA
:1000A000DD5A0008DD5A0008DD5A00083106000854
:1000B000DD5A0008DD5A0008DD5A0008DD5A000844
:1000C00070B50C00050004F089FF20221E4B196852
:1000D0009143196019681142FCD01C4B1B68002D1C
:1000E00016D05A0201D501222A709A02920F0726D1
:1000F0006A700F22190C180B11403040A970E8707B
:100100001909180A10403140134028716971AB7108
:100110000F4B1B68002C13D00F22190D11402170BA
:10012000190C114061701904490FA1700021E17090
:10013000190A114021719906890F13406171A37149
:1001400004F054FF70BDC0460C2800400028004059
:100150000428004010B504F041FF064B06491A6818
:100160000A401A601A6805490A401A6004F03EFF06
:1001700010BDC04608280040FFFEFFFFFFEFFFFF55
:1001800070B5041E38D004F029FF3149314A0B689C
:10019000314813400B60012302681A42FCD02378D7
:1001A000002B2AD16378C0205A1E9341F0259A076C
:1001B000A37880051B070340E0782D050006284042
:1001C000034313432279002A1AD0802212041A43CF
:1001D000237A002B26D080231B021343E27A002AC5
:1001E0002CD0802213431D4A136088230A685B01C8
:1001F00013430B6004F0FAFE70BD80231B06E1E799
:100200006279002A02D08022D2031343C022F02553
:10021000A079920300051040E2792D0312042A40D0
:100220000243D4E7E020F025637AC0011B030340BA
:10023000A07A2D01000228400343CEE77020227BE4
:1002400012010240607B0F2420400243CAE7C046EF
:1002500008280040FFFEFFFF0C2800401C2800403B
:10026000124B10B598421DD00AD8114B984215D0A8
:10027000104B984214D08023DB0598420BD010BD60
:100280000D4B984210D00D4B9842F8D18C20FF3086
:1002900004F036FEF3E780208000F9E70848F7E72E
:1002A0008120F9E70748F3E78220F5E700140040D2
:1002B000000400400010004000200040002C0140DD
:1002C0000102000005020000E02010B5800004F0EB
:1002D000FBFD0F2005F048FC80208024800004F006
:1002E0000FFE0023E4051A001900200004F0CEFEE2
:1002F0000821200004F067FF200004F0E6FE200043
:1003000004F000FF80212000890104F060FF00223A
:100310002000110005F0A4F9200004F00CFF0221D8
:10032000200004F095FE10BD10B50C0004F0CCFDCB
:100330002000FFF795FF10BD10B5FFF791FF10BD2E
:1003400010B50400012105F0FBF9200004F0F3FED4
:1003500010BDF7B515001E0008AA1778040001911A
:1003600028000022022104F053F83200390028004E
:1003700004F08CF8002320001A00190004F086FE17
:100380001B4B1C491868400000F018FE01002000BB
:1003900004F019FF200004F093FE200004F0B2FEE8
:1003A0002000002104F011FF1349144B20001960B4
:1003B00004F00DFF6B461D792000290005F0E4F8DC
:1003C000099B2900DAB2200004F07EFF29002000FA
:1003D00005F03AF800222900200005F041F9290033
:1003E000200005F0B2F82000FFF7AAFFF7BDC046D5
:1003F0000C00002040420F000F27000010000020DA
:10040000802370B5DB0005000C009A420CD8074B26
:1004100018680023190000F081FF8905820A0A4349
:100420002800E1B205F01CF970BDC04610000020A4
:1004300070B50500244C254804F046FD244E25489F
:1004400004F042FD200004F073FC3000032300227E
:10045000022103F0DDFF032330000022012103F01D
:10046000F7FF03220121300004F010F8200004F00F
:1004700037F8200004F04FF8200004F077F820004F
:10048000002104F081F808220021200004F09BF9EB
:10049000200004F0AFF8200004F0BAF82900200092
:1004A00004F050F820003E2104F010F980230A4A9D
:1004B0001B02116820000B43136004F027F817207B
:1004C00005F052FB70BDC04600540040960200008B
:1004D000001400489503000008540040314B73B5E8
:1004E0001B681A0714D500212F4A117051702F4A2A
:1004F000DB0308D5012311680B43136002232C4949
:10050000086803430B60082311680B43136073BD35
:100510005A070DD5264804F026F86B46224A991D45
:10052000987108781378911CC85401331370EEE762
:100530000225190029402B4217D01B4C1C4E2200CB
:1005400063781232D15C6A46D171D17901333000BF
:10055000C9B2637004F005F8E31C6278DB7F9A424D
:10056000D5D33368AB433360D1E72022134211D097
:100570000E4B186802431A600E4B0B481960017845
:100580000029C4D00300020022331232023000F0EE
:1005900009FCBCE710221342B9D0044B19680A4386
:1005A0001A60B4E718540040140000201C540040A6
:1005B000005400402854004070B5C0259024ED0040
:1005C000E405194804F080FC2B00200000220221E1
:1005D00003F01EFF2A002000012103F057FFE12154
:1005E000124C4902200005F083F92000082105F093
:1005F0008BF92000002105F09DF92000002105F075
:1006000091F920000C2105F09DF90021200005F052
:100610009FF9200005F0A4F91B2005F0A5FA2000A1
:1006200005F0CEF970BDC0460E0300000038014051
:1006300010B580211D4805F04BFA1D4C00280ED046
:100640002378002B2CD0637C621CD15C174805F00A
:100650002DFA637C013363742378013B23702021DE
:10066000124805F035FA002808D0104805F022FAA3
:100670002200A37C1332D0540133A374A17C00293F
:100680000DD020002300621C133000F08BFB237878
:10069000002B04D000230548A37405F09BF910BD7E
:1006A0000248637405F09BF9D9E7C0460038014061
:1006B000370000200423024A11680B43136070477F
:1006C00010ED00E010B59024E40520000123022283
:1006D000002103F09DFE002220001100082303F0FA
:1006E00097FE022300220121174803F091FE20000B
:1006F00080230022012103F08BFE2000042300222E
:10070000032103F085FE200002230022032103F0D1
:100710007FFE200040230022032103F079FE200009
:1007200020230122002103F073FE802320000122F8
:1007300000219B0103F06CFE802301220021200098
:10074000DB0103F065FE10BD0004004810B59024E5
:10075000E4052100012003F0D7FD0021012003F072
:100760008BFD012003F0A8FD052005F0FDF9210017
:10077000202003F0C9FD0021202003F07DFD202072
:1007800003F09AFD072005F0EFF910BD9623002233
:100790005B0143439A4200DB7047C0460132F9E7F0
:1007A000F0B587B002AC07000E000E220021200039
:1007B00000F0A6FB07220021684600F0A1FB684676
:1007C0000021FFF77DFC6B469D790A21AD192800B9
:1007D00000F064FD280061730A2100F079FC6B468B
:1007E0005E7906213618300000F058FD3000217384
:1007F000062100F06DFC6B461D790A21ED192D18BC
:10080000280000F04BFD2800A1720A2100F060FCD6
:100810006B46DB780621181800F040FD002320000D
:10082000E37223720133617223712370FFF7A8FC16
:1008300007B0F0BD822010B5C00004F061FB0420B9
:1008400004F046F9042004F03BF904F0C7FB04204F
:1008500004F0EEF904F0D8F904F0C8FB10BD102341
:10086000024A11680B4313607047C04600200240E3
:1008700010B5012004F02CF9012004F021F9012029
:1008800004F08AF9002004F025FA002004F016FA9A
:10089000FFF7E5FF012003F087FD002004F0EAF9EF
:1008A000002004F0F3F9032004F012F9032004F00F
:1008B00007F9032004F070F9024B034A1360034A5E
:1008C000136010BD00127A000C0000200800002008
:1008D00010B5FFF7CDFF094804F0F6FA084804F018
:1008E000F3FA084804F0F0FAE720800004F0ECFA8C
:1008F000054804F0E9FA03F095FF10BD91020000ED
:10090000920200000F04000009030000902010B5BF
:10091000104C002223000321C00503F079FD2300C1
:10092000002203210C4803F073FD23000022032161
:100930000A4803F06DFDFFF7BDFE03F0A5FF03F0CD
:100940009BFF03F0A9FF03F08FFF03F0C5FF30BF4B
:1009500010BDC046FFFF000000040048001400481E
:1009600010B5154C200003F0DFFB0021200003F040
:1009700011FB200003F0EBFB0121200003F0AEFA95
:10098000200003F0DDFA200003F003FC03F04CFC30
:1009900003F036FC2000062103F037FB0021200085
:1009A00003F0ECFB200003F06BFB200003F097FB4F
:1009B000C820FFF7EBFE10BD0024014007B501AAD7
:1009C00010700121074803F0EBFA064803F036FCEB
:1009D000044803F073FB0028FAD0024803F003FC3C
:1009E0000EBDC0460024014070B5060064250024F9
:1009F0003000FFF7E3FF01F057FB011C201C00F063
:100A0000EBFC013D041C002DF2D1034900F080FEF7
:100A1000024900F07DFE70BD0000C84200F07F4535
:100A200010B50120FFF7E0FF10BD10B50220FFF761
:100A3000DBFF10BD10B50620FFF7D6FF10BD044B3D
:100A40001A78824202D0002218705A807047C0463D
:100A50005C000020014B18607047C0460000002079
:100A600010B500210120FFF79BFE10BD902010B5AE
:100A70000121C00503F0B3FC002801D0FFF7F0FF0F
:100A800090202021C00503F0AAFC002801D0FFF728
:100A9000E7FF10BD902010B58021C00503F09CFC3D
:100AA00010BD902010B58021C00503F093FC10BD4F
:100AB00010B50221014803F08FFC10BD000400486E
:100AC00010B50221014803F085FC10BD0004004868
:100AD00010B5FFF7DFFFFFF7EBFF10BD10B50548BE
:100AE000FFF754FEFFF7DDFFFFF7EAFFFFF70EFF0A
:100AF00010BDC046102700008020022170B5C0053F
:100B000004F0BBFA0100021E25D080200221C0059E
:100B100004F0B9FA214B224C1978022925D0032977
:100B200026D00020012921D160685A88002816D0DB
:100B30008021C9008A4202D205325A8001E0002297
:100B40006260588801F0B0FA216800F0ABFF01F054
:100B50008BFA002182B21348FFF752FC70BD002AC5
:100B600001D0053AE9E76160EBE70F485880E9E713
:100B7000802580215A880020AD00C900AA4204D2F5
:100B8000D506E80F002D00DA0800013292B28A4241
:100B900001D85A80D6E70022FBE7C0465C0000205F
:100BA00000000020002000400104000000220A4B49
:100BB00010B503201A70FFF742FFFA208000FFF7FC
:100BC000E5FD0122054B1A60FFF7C4FA8020800280
:100BD00003F08EFB10BDC0466C00002070000020AA
:100BE00010B5FFF73DFF012003F082FB10BD01228D
:100BF00010B5044B1A70FFF733FF202003F078FB89
:100C000010BDC0466C000020F7B50024334B344DB6
:100C10001C7000236B60AB60FFF75AFEFFF70AFE03
:100C2000FFF750FDFFF792FDFFF79AFEFFF7C4FCB8
:100C30003220FFF7FDFBE2202A498000FFF774FB1A
:100C4000072390220193033BD205210025480093FE
:100C50000C33FFF77EFBFFF737FB2000FFF7EFFEBB
:100C6000022004F081FF0121022004F0D1FF802046
:100C70002100800203F000FB8020800203F01CFBB7
:100C8000194E902734608024FFF722FFFFF7E8FE1B
:100C9000E401FF05FFF7EAFE3368012B12D103F0F0
:100CA000BDFF8020800203F015FB022004F068FFE6
:100CB000FFF714FFFFF7B9FE6860FFF7B1FEA86009
:100CC00030BFE7E72100380003F089FB002803D19B
:100CD0000130FFF7B4FEEDE70220FAE76C000020D8
:100CE0005C0000200020004070000020074B10B581
:100CF000186802F09BFE0022054B02F063F8054ADB
:100D0000054B01F077FD02F0D9FE10BD6000002018
:100D1000000004407B14AE47E17AD43F074B10B586
:100D2000186802F083FE0022054B02F04BF8020027
:100D30000B0001F0F5F902F0C1FE10BD64000020C7
:100D400000000440074B10B5186802F06FFE002247
:100D5000054B02F037F8054A054B01F04BFD02F058
:100D6000ADFE10BD68000020000004407B14AE47BB
:100D7000E17AD43F70B50024094D061C2868311C67
:100D800000F0AEFA002803D06420001BC0B270BD92
:100D90000134E4B20435642CF0D10020F7E7C046FA
:100DA000685C0008F7B50678070014001D00362EB1
:100DB00014D82F2E05D8102E24D0202E28D0002372
:100DC00084E0300030380628F9D800F0EDF84E0005
:100DD000F8FF8100F8FF8400F8FF8700402EEED175
:100DE00016700129EBD90123427856081E401A4299
:100DF00000D17BE0FFF74EFE002E00D179E0FFF737
:100E000057FE02E016700129D9D97B7863702AE079
:100E100080219020C901C00503F0E1FA431E9841EA
:100E2000C3B290203100C005019303F0D8FA060048
:100E30008021701E86419020019B89017600C005AB
:100E40009E1903F0CCFA431E98418000361890207A
:100E50000121C00503F0C3FA431E98413B78C0004E
:100E6000361823706670022330E0FFF73FFF3B78AF
:100E7000061C237000F07AFAC0B2607001F014F919
:100E8000011C301C00F028FF02F0D0FD00221A4B9C
:100E900006000F0001F096FF00F080FAC0B2A070CB
:100EA00001F002F902F0C2FD0022134B01F0A2FC96
:100EB00002000B003000390002F0F0F90F4B002265
:100EC00001F080FF00F06AFA0423E0702B70F7BD98
:100ED000FFF724FFCBE7FFF735FFC8E7FFF706FF73
:100EE0003B782370FFF746FF6070BCE7FFF7D9FD42
:100EF00082E7FFF7E5FD88E7000024400000594045
:100F0000F0B5050083074AD0541E002A44D0CEB263
:100F10000300032202E00135013C3DD301332E7072
:100F20001342F8D1032C2FD9FF220A401502154392
:100F30002A0415430F2C35D92700103F3F093E01E5
:100F4000B4461E001A001036664415605560956060
:100F5000D5601032B242F8D10F260C2201373F0182
:100F60002640DB193700224217D03E1FB608B400D6
:100F7000A4461A001C1D644420C2A242FCD10324D2
:100F80000136B6009B193C40002C05D0C9B21C1993
:100F9000197001339C42FBD1F0BD3400F4E714001A
:100FA0000300BFE72700E0E703B4714649084000AB
:100FB0004900095E49008E4403BC70470022430883
:100FC0008B4274D303098B425FD3030A8B4244D311
:100FD000030B8B4228D3030C8B420DD3FF22090253
:100FE00012BA030C8B4202D31212090265D0030B12
:100FF0008B4219D300E0090AC30B8B4201D3CB0308
:10100000C01A5241830B8B4201D38B03C01A524149
:10101000430B8B4201D34B03C01A5241030B8B424B
:1010200001D30B03C01A5241C30A8B4201D3CB0236
:10103000C01A5241830A8B4201D38B02C01A52411B
:10104000430A8B4201D34B02C01A5241030A8B421E
:1010500001D30B02C01A5241CDD2C3098B4201D336
:10106000CB01C01A524183098B4201D38B01C01AB4
:10107000524143098B4201D34B01C01A524103092B
:101080008B4201D30B01C01A5241C3088B4201D3DA
:10109000CB00C01A524183088B4201D38B00C01A87
:1010A000524143088B4201D34B00C01A5241411AAE
:1010B00000D20146524110467047FFE701B50020BB
:1010C00000F0F0F802BDC0460029F7D076E770477F
:1010D00003460B437FD4002243088B4274D3030999
:1010E0008B425FD3030A8B4244D3030B8B4228D33A
:1010F000030C8B420DD3FF22090212BA030C8B4260
:1011000002D31212090265D0030B8B4219D300E0FF
:10111000090AC30B8B4201D3CB03C01A5241830B84
:101120008B4201D38B03C01A5241430B8B4201D334
:101130004B03C01A5241030B8B4201D30B03C01A5D
:101140005241C30A8B4201D3CB02C01A5241830AD7
:101150008B4201D38B02C01A5241430A8B4201D306
:101160004B02C01A5241030A8B4201D30B02C01A30
:101170005241CDD2C3098B4201D3CB01C01A524197
:1011800083098B4201D38B01C01A524143098B4220
:1011900001D34B01C01A524103098B4201D30B0109
:1011A000C01A5241C3088B4201D3CB00C01A52412E
:1011B00083088B4201D38B00C01A524143088B42F3
:1011C00001D34B00C01A5241411A00D2014652418C
:1011D000104670475DE0CA0F00D04942031000D3AB
:1011E0004042534000229C4603098B422DD3030A00
:1011F0008B4212D3FC22890112BA030A8B420CD310
:10120000890192118B4208D3890192118B4204D338
:1012100089013AD0921100E08909C3098B4201D3B8
:10122000CB01C01A524183098B4201D38B01C01AF2
:10123000524143098B4201D34B01C01A5241030969
:101240008B4201D30B01C01A5241C3088B4201D318
:10125000CB00C01A524183088B4201D38B00C01AC5
:101260005241D9D243088B4201D34B00C01A52419C
:10127000411A00D20146634652415B10104601D329
:101280004042002B00D54942704763465B1000D3B3
:10129000404201B5002000F005F802BD0029F8D059
:1012A00016E770477047C0468446081C6146FFE752
:1012B0001FB500F0ADFB002801D40021C8421FBDBE
:1012C00010B500F031FB4042013010BD10B500F008
:1012D0009FFB002801DB002010BD012010BDC0468F
:1012E00010B500F095FB002801DD002010BD0120A5
:1012F00010BDC04610B500F03FFB002801DC002007
:1013000010BD012010BDC04610B500F035FB00280F
:1013100001DA002010BD012010BDC046F0B5150453
:101320002D0C0F0001002E00C64684460004140C4C
:10133000000C090C46434D43604361434019340C93
:10134000241800B5A54203D98020400280464144BC
:10135000250C6D18614659437A4330044919240419
:10136000000C2018891804BC9046F0BD9E2110B5D1
:10137000C905041CFFF7C8FF002803D1201C00F09A
:1013800073FE10BD9E21201CC90500F0A5FC00F0D5
:101390006BFE80231B069C466044F2E770B500227A
:1013A0000C4B04000D0002F045FC002804D1200085
:1013B000290002F005FB70BD064B00222000290029
:1013C00001F06CFF02F0FCFA80231B069C4660448F
:1013D000F1E7C0460000E041F0B54646D6464F462C
:1013E0004D024202C0B5520A6E0A4700B0463F0E97
:1013F0004E00C40FD00094463B008246360EC90F03
:10140000AD098C426DD0B81B814600284DDD002E01
:1014100000D188E0FF2F5AD08023DB041D434B46C8
:1014200001221B2B0ADC2B004A464946D3402022CE
:10143000521A95402A00551EAA411A4353469A1A39
:10144000530100D4B9E092019609300002F0FCFB90
:1014500005388640874200DDD4E03300C71B2020DA
:101460000137FB40C71BBE403200561EB241002769
:101470001A43530704D00F231340042B00D0043227
:10148000530100D49CE07B1CFE2F00D19AE0920116
:10149000520A9446DBB2D8056346E407184320435A
:1014A0001CBC90469946A246F0BD002849D0F31BCB
:1014B000002F00D0B6E05246002A60D0013B002B3E
:1014C00000D1FCE0FF2E00D0B4E00C004246002A20
:1014D00078D08020C00310434202530A9C46FF2369
:1014E000D9E7B91B002971DD002E3FD0FF2FEED0C8
:1014F0008023DB041D4301221B2907DC2A00202353
:10150000CA40591A8D406B1E9D412A4352445301D3
:1015100053D50137FF2F55D001237B491340520883
:101520000A401A43A5E7002D2CD001235B429C46BC
:10153000E1444B46002B00D1ADE0FF2F00D06EE719
:10154000C5E7FE207E1C304260D1002F00D093E022
:101550005246002A00D1B6E0002D9CD0521B50010B
:1015600000D4C3E053460C00EA1A82E7002D09D0EC
:101570000139002900D18BE0FF2FBCD1A7E70C0077
:1015800042463700FF2FA2D05202530A9C46FBB2BC
:1015900081E7FE210137394265D1002B7ED1002839
:1015A00000D1AAE0002D00D175E72A00524400279F
:1015B000530102D5554B01371A40530700D05AE763
:1015C000D208DFE70022FF23944664E70029E0D039
:1015D000F31B002F3ED0FF2E00D177E780220100C1
:1015E000D20411438A4601221B2B08DC52462021DB
:1015F0005046DA40CB1A9840431E984102433700C8
:10160000521984E7414A3F1A324032E753465E1B83
:1016100073012DD4002E00D017E7002200240023F0
:10162000944638E7FF2E00D14FE780225046D2047F
:101630001043824601221B2B08DC524620245046D0
:10164000DA40E31A9840431E984102430C003700E9
:10165000AA1AF5E6002893D0013B002B4FD0FF2EAD
:10166000C1D1424633E7FF2FACD055446A08A4E706
:1016700053460C00EE1AE8E65346002B28D1002D05
:1016800000D022E78023DB039C460024FF2302E7EF
:101690002A0052443BE753465A1BD1E6002800D1AA
:1016A00014E7002D00D112E78023DB031A4200D19A
:1016B0000DE74146194200D009E7424607E70C0012
:1016C0003700AA1ABCE6002D13D00C00C446E2E68F
:1016D000002D00D1FBE68023DB031A4200D1F6E6A1
:1016E0004046184200D0F2E60C00EFE6002A00D097
:1016F00063E7002200249446CDE6C446CBE62A00E8
:101700003700524403E7C046FFFFFF7DFFFFFFFBAA
:10171000F0B54F464646D6464502C0B547000C1CBC
:101720006D0A3F0EC60F002F66D0FF2F6CD000232E
:10173000EA00802599469A46ED0415437F3F6002F2
:101740006100430A9846090EE40F002948D0FF299A
:1017500010D08022D800D2040243904600207F3966
:101760004A4633007F1A02436C4992008A5863400C
:10177000DBB29746002B6DD10220FF3F33E0002300
:1017800098462600454682465346022B00D17FE00C
:10179000032B00D194E0012B17D038007F300028B4
:1017A0005FDD6B0704D00F232B40042B00D00435E2
:1017B0002B0103D538005A4B80301D40FE2867DCD2
:1017C000AD016D0AC0B202E01E0000200025C00578
:1017D0002843F60730431CBC90469946A246F0BD0C
:1017E000002B2BD101204A4633004E490243920080
:1017F0008A586340DBB29746002D13D104239946E3
:10180000033B00279A469AE7002D05D10823994605
:10181000063BFF279A4692E70C239946093BFF2790
:101820009A468CE7280002F00FFA7627431F9D4066
:1018300000237F4299469A463F1A80E7180002F03B
:1018400003FA4246431F76219A404942091A9046BC
:10185000002085E7FF21032082E71E00FF200025EE
:10186000B5E701231B1A1B2BAFDC9E372900BD40B7
:10187000D9406A1E95410D436B0704D00F232B40BE
:10188000042B00D004356B0144D5012000259EE7D0
:10189000FF2000259BE780250026FF20ED0396E72B
:1018A000002398468020C003054209D043460342E6
:1018B00006D1454605436D022600FF206D0A86E7E6
:1018C0008020C00305436D02FF206D0A7FE741467B
:1018D0006A014801824219D21B210025013F0126DD
:1018E00014006D005200002C01DB904201D8121A46
:1018F000354301390029F3D1501E824138007F3031
:101900001E001543002800DD4BE7AAE71A21012538
:10191000121AE4E7AD0100206D0A58E7F85D0008EF
:10192000FFFFFFF7385E000870B542004E024C0022
:1019300045026D0A120EC30F760A240EC90FFF2A44
:101940000FD0FF2C11D00120A24200D070BDB542B3
:10195000FCD18B420DD0002AF8D12800451EA841A9
:10196000F4E70120002DF1D1EBE70120002EEDD1AD
:10197000E9E70020EAE7C046F0B5420046024D0222
:101980004C00C30F760A120E6D0A240EC80FFF2AF0
:101990001FD0FF2C10D0002A1FD171427141002CA2
:1019A00001D1002D1ED000290ED183421ED002216C
:1019B000581E08400138F0BD002D26D1002AF4D170
:1019C000714271410029F0D00028F4D10120404239
:1019D000F1E7002E19D1FF2CEED0002CE5D1002D1F
:1019E000E3D1E4E70020002EE5D0E0E7A24205DCE9
:1019F000EADBAE4202D8E7D30020DCE741424141B6
:101A00004842022108400138D5E702204042D2E78F
:101A1000F0B5420046024D024C00C30F760A120E8A
:101A20006D0A240EC80FFF2A0DD0FF2C0FD0002AFC
:101A300023D171427141002C0FD1002D0DD1002016
:101A4000002E14D00DE0002E10D1FF2C15D1002D4A
:101A50000CD1002A03D171427141002908D183427F
:101A600010D00221581E0840013800E00220F0BDCD
:101A70000028FCD101204042F9E7002CEFD1002DD5
:101A8000EDD1EEE7A24205DCF2DBAE4202D8EFD3A5
:101A90000020ECE741424141484202210840013820
:101AA000E5E7C046F8B557464E464546DE46440291
:101AB000E0B545000F1C640A2D0EC60F002D47D05F
:101AC000FF2D4DD0002380209A469B46E400C004A1
:101AD00004437F3D7802430A99467A00FB0F9846FB
:101AE000120E4B4644D0FF2A11D0D8008023DB04CD
:101AF0000343994600207F3AAD1847465346774046
:101B0000691C0F2B3FD8724A9B00D3589F46FF3564
:101B1000002B00D079E0524602231A43924602205D
:101B2000EBE747464C4683465B46022B28D0032B07
:101B300000D1C6E0012B4FD100200024C005FF07D3
:101B4000204338433CBC90469946A246AB46F8BD7C
:101B5000002C71D104239A46033B00259B46B9E72C
:101B6000002C63D108239A46063BFF259B46B1E72C
:101B7000002B50D1524601331A4392460120BCE754
:101B8000FF200024DAE74846260C2404220C040433
:101B9000240C4B4620001B0C504374435A435E43B5
:101BA0001219030C9B189C4203D9802252029446BE
:101BB000664400041A04000C12189401601E84414B
:101BC0001B0C920E9B1914439B011C431B0172D5E5
:101BD0000120630804401C4308007F3000283CDDDE
:101BE000630704D00F232340042B00D004342301C7
:101BF00003D580310800374B1C40FE28C0DCA4010F
:101C0000640AC0B29AE737008EE7524603231A43AC
:101C10009246032071E7484602F016F84A46431FF1
:101C20009A402D1A91460020763D66E70C239A468D
:101C3000093BFF259B464DE7200002F005F876257D
:101C4000431F9C4000236D429A469B462D1A41E754
:101C500080240027FF20E40370E701231B1A1B2BBD
:101C600000DD69E79E3120008C40D840631E9C4116
:101C70000443630704D00F232340042B00D0043413
:101C800063011AD50120002458E78020C0030442D4
:101C900009D04B46034206D14C46044364024746F2
:101CA000FF20640A4AE78020C0030443640237002F
:101CB000FF20640A42E729008EE7A4010020640A9D
:101CC0003CE78020C00304436402FF20640A35E738
:101CD000785E0008FFFFFFF7F0B54646D6464F4650
:101CE00043025B0ADA0094464A02C0B54400560A31
:101CF000051CB046240E4E0092091F00200092469B
:101D0000ED0F360EC90FFF2E00D17FE001225140AA
:101D10008D4251D0A21B9146002A00DC7EE0002EAD
:101D200000D199E0FF2C00D18CE080235246DB04E7
:101D30001A4392464A4601231B2A08DC53462021B7
:101D4000D340891A52468A40511E8A411343624643
:101D5000D31A5A0100D4F3E09B019E09300001F030
:101D600073FF05388640844200DDF7E03200041B33
:101D700020200134E240041BA64033005E1EB34124
:101D8000002413435A0704D00F221A40042A00D01B
:101D900004335A0100D4D6E0621CFE2C00D1DAE0F4
:101DA0009B015F0AD0B2C0053843ED0728431CBC35
:101DB00090469946A246F0BDA21B9146002A63DDDB
:101DC000002E00D199E0FF2C3CD080235246DB044A
:101DD0001A4392464A4601231B2A08DC5346202117
:101DE000D340891A52468A40511E8A4113436344A4
:101DF0005A0100D4A4E00134FF2C00D1ABE0012251
:101E000097491A405B080B401343BBE7002A32D0C6
:101E10008D4235D0FF2252429146A1444A46002AC3
:101E200051D0301B002C00D09CE06346002B00D129
:101E3000DFE00138002800D1F7E0FF2E00D099E064
:101E40000D004346002B00D185E08027FF031F4390
:101E50007F02FF207F0AA6E75246002A74D00122A3
:101E600052429046C1444A46002A00D1C8E0FF2CA5
:101E700000D05FE7E6E701225140A94200D049E7E0
:101E8000FF2252429146A1444A46002A43D0311BC8
:101E9000002C00D18CE0FF2E00D192E0802362461E
:101EA000DB041A43944601231B2909DC20206346E6
:101EB0006246CB40411A8A401100481E81410B43C3
:101EC0003400534494E7FE22661C324264D1002C55
:101ED00000D082E06346002B00D1ABE05346002BDC
:101EE00000D160E7634652469B1A5A0100D4AAE02B
:101EF000634652460D00D31A44E75246002A23D0C7
:101F0000012252429046C1444A46002A75D0FF2C15
:101F100000D05FE796E7FE260134264253D1002821
:101F200072D16346002B00D193E05346002B00D1C1
:101F300039E7634400245A0102D54A4A0134134068
:101F40005A0700D020E7DB08FF2C00D17AE75B02BC
:101F50005F0AE0B227E7FF20002724E7414B241A5D
:101F600033400FE7FF2E00D16AE780236246DB048F
:101F70001A43944601231B2809DC20246346624649
:101F8000C340201A82401000441EA0410343524621
:101F90000D003400D31ADCE6634652469E1A7301E4
:101FA00017D4002E00D0D9E6002500200027FAE63D
:101FB0006346002B44D0013900294CD0FF2E00D0BD
:101FC00071E743463EE7FF2CC5D0524662445308B2
:101FD000B6E763460D00D61AC0E66246002A16D15F
:101FE0005346002B00D02BE780270025FF20FF035E
:101FF000D9E60D0043463400A6E753466344F7E6AE
:10200000634652469B1AA4E66246002AD9D052463D
:10201000002A00D116E78022D203134200D111E733
:102020004046104200D00DE70AE752460D0034004A
:10203000D31A8EE65346002B08D00D004746B2E671
:102040004346340080E7002B00D079E700250027C5
:10205000A9E64746A7E6534634006344C8E6C046AF
:10206000FFFFFF7DFFFFFFFB41024200C30F490A54
:102070000020120E7E2A03D99D2A02D9094A9818F7
:102080007047802000040143952A07DC9620821ABD
:10209000D1404842002BF3D10800F1E7963A914035
:1020A000F7E7C046FFFFFF7F70B5051E0ED001F0B9
:1020B000CBFD9E2304001B1A962B0CDC082801DDA7
:1020C000083CA5406D026D0AD8B201E00020002551
:1020D000C005284370BD992B09DD020029001B3281
:1020E00091404A1E91410522121AD5400D43052CFC
:1020F00001DD621F95402900084E31406A0709D072
:102100000F202840042805D004314A0102D59F231E
:1021100031401B1B89014D0AD8B2D9E7FFFFFFFBF5
:10212000F0B54F46D64646460D0001001800C0B532
:1021300017002B035A0A4B0F1343CA0091460203A0
:102140006E004100520AEC0F7D0F1543760D490DCC
:10215000C00F8246AC46FF00721A844200D198E05C
:10216000002A00DC81E0002900D1B6E0C9498E4296
:1021700000D172E180212800090408438446382AEE
:1021800000DD5EE11F2A00DDEEE12020390065461A
:10219000801A8740D14085400D4339004F1EB94118
:1021A0006746D7402943DB1B4A46551AA945894152
:1021B00049425B1A984643461B0200D4CCE0434692
:1021C0005B025B0A98464346002B00D12CE1404657
:1021D00001F03AFD01000839202228004346521A36
:1021E0008B40D0408D4003438E4200DD17E18E1BB3
:1021F000721C1F2A00DDA7E1202118002E00891A79
:102200008D408840D640D340691E8D41304398466A
:10221000002605436B0709D00F232B40042B05D064
:102220002B1DAB42AD416D42A8441D0043461B022D
:1022300000D494E0974B721C9A4200D19DE0414635
:10224000954BED0819400B00520549075B022943E5
:102250001B0B520D12051343E4072343080019001A
:102260001CBC90469946A246F0BD002A43D08A1B6A
:10227000002E00D02AE14C461C4300D1D1E1541E6F
:10228000012A00D11FE2834DAA4200D172E222004E
:1022900023E1002A00DC98E0002942D07D498E42EB
:1022A00000D1DAE080212800090408438446382A56
:1022B00000DD29E11F2A00DC87E111006546203995
:1022C000CD40202A04D040206146821A91400F431D
:1022D00039004F1EB9410D431BE12900394300D19C
:1022E000B5E0511E012A00D1ABE16A48824200D11B
:1022F000B2E10A0043E76949751C0D4200D0CFE006
:10230000002E00D093E14946194300D1D1E1614646
:10231000394300D0E3E149465807C9080143DB08C7
:1023200026E02900394300D191E0511E012A05D051
:102330005848824200D18FE10A00B8E73D004D4481
:102340004D458941634498464942884443460226A4
:102350001B0200D5EBE0013E6B0700D05CE7434673
:10236000E9085A0711433200DB084A48824221D06B
:102370001B0352051B0B520D6CE70023002169E77C
:102380002A003A4369D04A465807D108DA08802320
:102390001B0308431A4207D02900ED081D4203D150
:1023A0002A00FF0848073843430FC1005B07C908EC
:1023B000194313000A001A4300D113E280221203CA
:1023C00013431B03334A1B0B44E7002A4BD08A1BE1
:1023D000002E00D1E7E02F48814200D195E1802016
:1023E00000040343382A00DD43E11F2A00DDDBE15E
:1023F00020201D004E46801A8540D64035434E466B
:1024000086403000D340461EB0419C440543ED1940
:10241000BD429B415B42634498460E007FE01E4AEA
:10242000761A13409846F5E6280001F00DFC0100ED
:1024300018311F2900DCCFE62B0008388340002527
:10244000D2E662463A4311004F1EB941ACE6494616
:102450005807C9080143DB0887E749465A07C908F6
:102460001143DB08A6E70D49701C084200D0BBE011
:10247000002E00D014E14946194300D175E129002E
:10248000394300D07EE149465807C9080143DB08BB
:102490006EE7C046FF070000FFFF7FFFFE0700005A
:1024A0004946CD1B6146581AA9458941494288468B
:1024B00001004046091A8846090200D5A6E04146B7
:1024C000294300D07FE60023002451E7C74CA142F6
:1024D00000D1C7E0802424042343382A54DC1F2A77
:1024E00000DDCCE020244846A41A1D004E46A04042
:1024F000D640A5400400D34062463543661EB44131
:10250000D31A9C46254344E062463A4315006F1EA9
:10251000BD414D444D458941494288469844434612
:102520001B0200D418E7B14B01369E4249D0424607
:10253000AF4B01211A4013006A080D401543D9071B
:102540005B0898460D4365E618001F3EF040202AC0
:1025500003D040218A1A93401D43691E8D410023F8
:10256000002698460543F7E6110065462039CD4020
:10257000202A04D040206146821A91400F4339003E
:102580004F1EB94129430FE64A4613431D006B1EF7
:102590009D417D1BAF429B4162465B42D31A9846E8
:1025A00054460E0007E64846184300D1B3E0501EDB
:1025B000012A00D10DE18D4DAA4200D1A5E0020013
:1025C00010E732000023002144E620213800891A58
:1025D00065468F408D40D040791E8F4105433D4375
:1025E0006746D740DB1994E7804A904200D1ECE07F
:1025F0003900494449459241634452429B18DD07E2
:1026000049085B08984606000D43A5E64A46BD1AF0
:10261000AF42894162464942D31A5B1A98465446F2
:10262000D1E56C07F9082143EB0804009DE64A4612
:102630001A4375D16146394314D1802300241B030A
:10264000BCE64A46D51BA9458941624649429B1AC8
:102650005B1A98460126AEE54A46D1085A0711434F
:10266000DB08A7E66346F9085A0754461143DB081E
:10267000A0E64A4613431D006B1E9D41C7E61400A9
:102680001E00203CE640202A05D04024A21A934098
:102690004A461A4391464D466B1E9D41354378E7A5
:1026A0004A461A4300D06BE66B07F9081943EB085A
:1026B00080E66146394354D06346F9085C072143FC
:1026C000DB08040054E64A46BD1AAF42894162461F
:1026D0004942D31A5B1A9846040001266BE54A4624
:1026E000D51BA9458941624649429A1A521A904619
:1026F000120232D54A46BD1AAF428941624649426A
:10270000D31A5B1A9846040084E56346F9085A0711
:102710001143DB084EE6F90868070143EB0824E69D
:1027200062463A4300D198E64A46D1085A07114317
:10273000DA0880231B031A4208D06046C5081D42F0
:1027400004D154462A00F908430719434B0FC90026
:102750005B07C908194313002CE64146294300D002
:10276000FAE500230A00002402E66B07F908194382
:10277000EB08FDE56346F9085B071943634604006F
:10278000DB0817E63D004D4463444D4589419846BA
:102790004942884443461B0200D4DDE54246144BBF
:1027A00001261A409046D7E510001E002038C6408A
:1027B000202A05D04020821A93404A461A43914667
:1027C0004D466B1E9D41354321E60200002300214A
:1027D00040E54A46D519BD4289416344984649427D
:1027E0008844B3E50021014A0B0033E5FF070000F0
:1027F000FFFF7FFFF0B557464E464546DE46E0B543
:10280000814605000C03480092461F0085B0240B4A
:10281000400DCE0F002859D0874B984200D198E048
:102820006B0FE4001C4380231B0423439846834B17
:10283000ED009B4600239946834400933C037B00B4
:102840005046240B5B0DFF0F002B67D07A4A934252
:1028500018D07A49420F8C46E4005946144380222E
:1028600063441204CB1A14439B46C2000020330079
:102870007B409A464B460F2B00D9EFE070499B00F6
:10288000CB589F466F4B52469C462243E344002A56
:1028900000D095E0494602231943894600240220CE
:1028A000E5E700230024002552461B052343D207F9
:1028B00013432800190005B03CBC90469946A24637
:1028C000AB46F0BD002400255B4BEDE74B462343B0
:1028D000984600D189E0002C00D1E0E1200001F011
:1028E000B3F9010002000B391D235B1A49461000A1
:1028F000D940083884400B004D4623439846854014
:1029000051483C03831A9B460023994600937B0061
:102910005046240B5B0DFF0F002B97D152462243EC
:1029200055D0002C00D1CAE1200001F08DF9020041
:102930000B3A1D2301009B1A52460839DA408C409D
:10294000144352468A40414B58449B4683440020DE
:102950008DE74B462343984640D108239946063BD2
:1029600000258346009369E7B246009B022BA9D05D
:10297000032B00D111E2012B93D0354A5A44002A8F
:1029800000DC3CE16B0700D0A7E1ED084346DB012A
:1029900006D542462F4B1A4090468022D2005A4418
:1029A0002D4B9A428EDC4346520558075C02054384
:1029B000240B530D78E7BA46A04615000090D4E7E3
:1029C0004A4603231A439146032052464FE749469D
:1029D0000123194389460024012048E70C23994626
:1029E000093BA0468346009328E704239946002329
:1029F0009B4601330025009320E7002380249A465C
:102A000000250D4B24034FE7802341461B03194249
:102A100008D01C4206D11C432403BA461500064BBD
:102A2000240B41E78024434624031C432403B2467D
:102A3000014B240B38E7C046FF07000001FCFFFFF5
:102A4000B85E000801F8FFFF0DFCFFFFF303000074
:102A5000FF030000FFFFFFFEFE070000444500D219
:102A600016E100D111E101235B429C462E00404655
:102A70000025E3442302140E1C431B0C9946230437
:102A80001F0C1202494600920197FEF71DFB02003F
:102A90007A430B04310C804619438A420BD9012337
:102AA0005B429C460919E0448C4204D88A4202D910
:102AB000831E98460919881A4946FEF705FB090442
:102AC0008C4631046646019A090C424303003143A7
:102AD0008A4204D90919013B8C4200D811E1891AB4
:102AE0004246009E12041A43330C1F00100C9046FD
:102AF000029313043204160C32001B0C5A43039643
:102B00007B4346437843170CBC469B1963449E4263
:102B100003D980267602B44660441E0C3018160491
:102B20001B04360C9E19814200D29CE000D197E034
:102B3000AE1B091AB54280414042081A844200D1B6
:102B400011E14946FEF7C0FA019A0B044243310CE9
:102B5000050019438A4207D90919013D8C4203D85F
:102B60008A4201D9851E0919881A4946FEF7ACFA2E
:102B700009048C4631046646019A090C424303005D
:102B800031438A4207D90919013B8C4203D88A4252
:102B900001D9831E0919039E891A32002D041D4391
:102BA000029F2B041B0C5A437B439C46280C464334
:102BB000130CB444634478439E4203D980267602C2
:102BC000B44660441E0C12041B04120C30189B18EF
:102BD000814206D302D001231D43CEE6002B00D153
:102BE000CBE661186E1EA14200D2A4E0814200D261
:102BF000C9E000D1D9E03500EDE701256D420121A2
:102C0000891A382900DD4CE61F2900DC7FE01F23EC
:102C10005B429A1A4346D340202904D04446654A71
:102C20005A44944025436A1E954107222B431500C0
:102C300000241D401A4200D1A1E00F2200241A40B6
:102C4000042A00D198E01A1D9A429B415B42E41885
:102C50001300220200D48FE001230024002523E684
:102C6000B54200D364E743465A1E009B9C46654428
:102C70001F009D429B415B421B19C9188C423AD2EE
:102C8000884263D860D0904652E7AA4200D9EAE66B
:102C90004346DE0758086B081E43ED07EAE6484640
:102CA00000F0D2FF01000200153120321C2900DCA7
:102CB0001AE64B46083883400025984620E600F087
:102CC000C3FF03001A00153220301C2A00DC30E656
:102CD0005446083B00229C4035E60F232B40042B32
:102CE00000D152E605235B42AB429B4104355B4277
:102CF000ED0898444AE68C42C5D1AF42C0D990460F
:102D000016E78A4200D8EAE6831E0919E7E62A4A4E
:102D100028005A44434695409340C8406A1E954156
:102D2000444603432B43CC405A0792D00F221A400B
:102D3000042A88D18DE73500814200D04BE7009A04
:102D4000934200D047E718E6AE429CD902235B428B
:102D50009C46009BE0449C4665449D429B415B42EF
:102D60001B19C918E4E6154A5A44002A00DC44E756
:102D700001230025984409E665076402240BDB085B
:102D80001D43002390E5009E023D7200B242BF4108
:102D90007F423C1909190092CEE780244346240360
:102DA0001C432403064B240B7EE5009A9A42EAD387
:102DB0003500C4E73E0400001E040000FF030000CD
:102DC000FF070000F0B557464E464546DE46E0B5E3
:102DD00098460C034B000600924687B0240B5B0D0F
:102DE000CF0F002B6CD0DD4A934200D186E0420F1A
:102DF000E4001443802212041443D94AC5009446C7
:102E000063440093002399469B46434642461E0373
:102E1000D20F5B0050469046360B5B0D00D178E038
:102E2000CE4A93421DD0CE49420F8C46009963444E
:102E3000F6008C46164380229C44120463461643D7
:102E4000C200002000930099434601318C46494658
:102E50007B4001930F2900D97EE0C24B890059586D
:102E60008F465246009B324300D056E1BB490026B4
:102E70008C46634449460093022319438946022045
:102E8000E1E7434601933400150083465B46022B7D
:102E90005ED0032B00D1F3E1012B00D018E100221A
:102EA00000240025019B12052243DB071A4328005A
:102EB000110007B03CBC90469946A246AB46F0BD17
:102EC0002500054300D141E1002C00D1ADE12000F7
:102ED00000F0BAFE010002000B391D2310005B1A3E
:102EE0003100350008388440D94085400C439E4865
:102EF000831A0093002399469B4686E705002543E5
:102F000000D01CE1082200930223002491469B4636
:102F10007BE75246324300D10AE1002E00D176E130
:102F2000300000F091FE02000B3A1D2301009B1AB5
:102F300052460839DA408E40164352468A40009B7A
:102F40008949181A03008C466344002000937AE7ED
:102F500000240025814AA5E72F0C2D042D0C2B0001
:102F6000110C1204120C53439846130028007B43A3
:102F7000994648434844834640460B00000C82462D
:102F800058467B4350440293814506D99A46802394
:102F90005B029946CA4453460293030C9B46434640
:102FA0001B0400041B0C9846030043440493330C99
:102FB00099462B003604360C7343984633007B4306
:102FC0009A464B465D435F4343465544180C4019AF
:102FD000824503D980235B029A465744050CEB19BE
:102FE000059343461D042D0C00044019250C2404B0
:102FF000240C270057436A4390462A003B0C9A460C
:103000004A436143414451448344884503D9802362
:103010005B02984642443F040B0C3F0C0904C9195B
:10302000270098464B4677435C436E435D433B0C19
:103030009946A4194C4442440395A64204D98023DE
:103040005B02984645440395029B3F045B441E0087
:103050008342804123049846059B3F0C4744984691
:1030600076188E428941474440423D18A84693460F
:1030700049428A46C3449F42BF4180458041039BE9
:10308000DA449846534640427F420743240C934516
:1030900092418A4589413F19DC0D049B75021D430D
:1030A000681E85415346524249420A43BF1847446D
:1030B000F60D7F0235435A023C431543FB0100D411
:1030C000C1E001216A080D401543E2071543640879
:1030D00026496144002956DD6B0709D00F222A409A
:1030E000042A05D02A1DAA42AD416D42641915007B
:1030F000E30104D580211E4AC900144061441D4AE1
:10310000914200DD24E76207ED086402490515439A
:10311000240B4A0DC6E60197B8E6104A03209446F0
:1031200063444A46009303231A43914652468AE673
:1031300049460123194389460026012083E60C22D3
:1031400000930323050091469B465EE604239946BF
:1031500000230093013300249B4656E6FF0700003E
:1031600001FCFFFFF85E00080DFCFFFFFF030000FD
:10317000FFFFFFFEFE070000002380240025444AD5
:10318000019324038EE60120401A382800DD86E6EC
:103190001F285BDD1F2223005242511ACB40190029
:1031A000202803D03B4A6244944025436A1E95413F
:1031B0002A000A4307210D000024154011425BD06C
:1031C0000F2100241140042953D0111D9142924136
:1031D0005242A4180A0023024BD5012200240025E4
:1031E00060E680231B031C4209D01E4207D13343F3
:1031F0001C0343461500240B254A019352E6802206
:10320000120314432403224A240B01974AE600F0D8
:103210001BFD03001A00153220301C2A00DC84E656
:103220005646083B00229E4089E600F00DFD010055
:103230000200153120321C2900DC4EE6340008382B
:103240000025844053E6009B9C4641E7124922003A
:1032500061442E008D408A40C640691E8D41324334
:103260002A43C4405307B6D00F2111400429ACD1E2
:10327000B1E765076402240BD2081543002211E66A
:103280008022120314432403014A240B0AE6C04699
:10329000FF0700003E0400001E040000F8B557467A
:1032A0004E464546DE460400E0B51F0010000B0305
:1032B000620F4E00CD0F5B0A39031343490AE20047
:1032C000440F2143C24C91469246C0007A0080468A
:1032D000760D520DFF0FA24200D1B4E001246740E9
:1032E000BB46BD4200D188E0B41AA446002C00DCE5
:1032F000B2E0002A00D1C5E0B54A964200D18BE287
:103300008022120411436246382A00DDA1E11F2AFF
:1033100000DD16E220270C00BF1ABC400200A046C8
:103320006446B840E240444614430200501E8241C5
:103330006046C14022435B1A49468C1AA14592411E
:1033400052429B1A984643461B0200D417E143465B
:103350005B025B0A98464346002B00D16CE1404675
:1033600000F072FC0200083A202120004346891A2E
:103370009340C84094400343964200DD57E1961BBA
:10338000711C1F2900DDCBE1202218002600521AF3
:1033900094409040CE40CB40621E944130439846CA
:1033A00000260443630709D00F232340042B05D0D4
:1033B000231DA342A4416442A0441C0043461B02B7
:1033C00000D4DFE0824B01369E4200D1FBE0424652
:1033D000804BE4081A401300710552075B02224338
:1033E0001B0B490D0905ED071943294310003CBC8F
:1033F00090469946A246AB46F8BDB41AA446002CA6
:1034000058DD002A00D19EE0714A964200D13BE18E
:103410008022120411436246382A00DDC1E01F2ACF
:1034200000DCBBE10C00203AD44022006446202C92
:1034300004D040273F1BB940084380464446611EE4
:103440008C411443B1E00C0004432AD0BB46BD427A
:103450002DD0614CA446B4446446002C5CD0941B2F
:10346000A446002E00D015E14D461D4300D1C3E116
:10347000651E012C00D10CE2554EB44200D1F8E19A
:10348000AC460EE10A00024300D136E12200013AC7
:10349000012C00D1C6E14E4CA44500D1F4E0944685
:1034A00031E701246740BB46BD4200D01CE74A4CCF
:1034B000A446B4446446002C00D1CFE0941BA4463B
:1034C000002E00D15CE1424EB24200D1ECE18026F8
:1034D000360433436446382C00DDB3E11F2C00DD95
:1034E00038E22026361B1C00B4404F46A0466446F6
:1034F000E74044463C434F46B7403E00771EBE413E
:1035000034436646F340C918241884429B415B4209
:103510009846160088444EE0304A741C144200D08D
:10352000D6E04A461A43002E00D05BE1002A00D1C3
:10353000A5E10A00024300D0BBE14A465907D20880
:103540000A43DB0827E00A00024300D174E12200AD
:10355000013A012C05D01E4CA44500D194E09446BC
:1035600059E74844484592415B1898460400524246
:103570009044434602261B0200D5C4E0013E630787
:1035800000D011E74346B4465907E2080A43DB0876
:103590000F498C4540D061461B0349051B0B490D63
:1035A00020E701430C00611E8C414C444C45924184
:1035B00052429046984443461B02E0D5044B0136E4
:1035C0009E4200D09FE03100002300220AE7C0465F
:1035D000FF070000FFFF7FFF01F8FFFFFE0700006D
:1035E000002A00D160E10A0002434DD04A465C0740
:1035F000D20822438024DB082403234207D0CE08CC
:10360000264204D15D463300C20849070A43510FE0
:10361000D200D20849070A431100194300D1C8E17A
:10362000802109030B431B03D5491B0BDAE6D5495F
:10363000B61A0B409846B5E6200000F005FB0200E4
:1036400018321F2A00DC8FE623000838834000244C
:1036500092E608430200501E82416DE6CA4C721C7D
:10366000224200D0ADE04A461A43002EB8D1002ACB
:1036700000D158E10A00024300D059E14A465907F7
:10368000D2080A43DB0886E74A465907D2080A43AC
:10369000DB08C1E7BA4DAA4200D11EE180252D0406
:1036A0002B436446382C5DDC1F2C00DDD0E0202548
:1036B00067462D1B4E461C00FE40AC4034434E4630
:1036C000AE403500FB406E1EB541C91A2C434EE09A
:1036D0004A46141AA1459241524290465F1A3A0056
:1036E0004746D21B9046120200D58BE04246224349
:1036F00000D030E6002300254DE74A465907D2089E
:103700000A43DB0844E742469E4B61081A40130017
:10371000012214400C43DA075B089846144341E643
:103720001A001F3EF2401600202903D04022511AF1
:103730008B401C43621E944100233443984600266C
:103740001DE70C00203AD44022006446202C04D00F
:1037500040273F1BB940084380464446611E8C41C8
:103760002243E9E54C4623431C00631E9C41041B95
:10377000A0429B415B42CB1A98465D461600E2E5AB
:103780004E461E4300D1AEE0661E012C00D1FDE086
:103790007B4FBC4200D107E1B4469BE66446202241
:1037A000121B0C00944007009040A0466446421E45
:1037B00090416246E7404446D1403C4304435B1895
:1037C000F3E66F4CA24200D1D5E048445B1848456F
:1037D000894149425B18DC0740085B08984616009F
:1037E0000443CCE6002A00D082E00A00024340D124
:1037F000802300251B0313E74B07C2081A435D46CD
:10380000CB08C5E64A46841AA0429241CB1A5242DE
:103810009B1A98465D469EE54A465907D2080A43D8
:10382000DB08F9E64A46141AA14592415B1A524256
:103830009B1A9846012686E54A465907D2080A434C
:10384000DB08A5E64C4623431C00631E9C415BE657
:1038500065461E00203DEE40202C05D040252D1B46
:10386000AB404C461C43A2465446631E9C41344325
:103870007DE74B07C2081A435D46CB08CCE60A0039
:10388000024300D136E74B07C2081A435D46CB0816
:1038900081E64A46841AA0429241CB1A52429B1AB0
:1038A00098465D4601264EE54B07C2081A43CB08F1
:1038B000B2E64A46141AA14592415F1A5242BA1A18
:1038C000904612026BD54A46841AA0429241CB1A06
:1038D00052429B1A98465D4664E54B07C2081A435C
:1038E0005D46CB0898E64B07C2081A43CB084FE663
:1038F0000A00024390D04A465C07D2081443802253
:10390000DB081203134208D0CE08164205D1C008C6
:103910004907084304005D463300610FE200490790
:10392000D2080A4378E64B07C2081A43CB0832E6AE
:1039300048445B1848459241984652429044434659
:1039400004001B0200D41AE642460E4B01261A4020
:10395000904614E666461F00203EF740202C05D016
:103960004026361BB3404C461C43A2465446631EB9
:103970009C413C43C8E511000023002232E5C046CB
:10398000FF070000FFFF7FFFFE0700004A461418F4
:10399000844292415B18984652429044E9E542467F
:1039A000224300D1A6E6EAE54B07C2081A43CB083A
:1039B00032E600220149130014E5C046FF0700006B
:1039C0000A0030B5134C530009030500090B002011
:1039D0005B0DD20FA34204DD0F48834202DD0F4B83
:1039E000D01830BD8020400301430D48C01A1F2865
:1039F00008DD0C48C31AD9400B005842002AF0D108
:103A00001800EEE7084CC540A446634499400B00FB
:103A10002B43F2E7FE0300001D040000FFFFFF7FC1
:103A20003304000013040000EDFBFFFF70B54300FA
:103A30004602C40FFE201B0E591C750A08420CD00A
:103A4000E022920094466D07360B63441B05334316
:103A5000E40723432800190070BD002B14D1002D6A
:103A60001BD0280000F0F0F80A281CDC0B232A00E9
:103A70001B1ADA40030015339D400E4B12031B1A2C
:103A80005B05160B5B0DE1E7002D09D0320B80269C
:103A90003603094B6D071643D8E700230026D5E708
:103AA0000026054BD2E703002A000B3B9A40002575
:103AB000E3E7C04689030000FF07000002004B0057
:103AC000F0B508035B0D3D4ECC0F400A510F5F1C53
:103AD0000843D50037420AD039495E18FE2E16DD5C
:103AE000FF230021DB050B43E0071843F0BD002B4B
:103AF00006D1284327D005218901490ADBB2F1E725
:103B00000543EDD08021C903FF230143EAE7002EDE
:103B10001CDD920111004A1E9141C0006D0F01434E
:103B200029434B0748D00F230B40042B00D004310E
:103B30008023DB040B403FD0721CFE2ED0D08901C5
:103B4000490AD3B2CEE700230021CBE73200173277
:103B500022DB80211E2209040843921B1F2A1DDD3F
:103B6000022149428E1B0100F1400E00202A04D0A0
:103B7000144A944663449840054329004D1EA941C8
:103B8000314300264B07CED180200B00C004012218
:103B900003400142D3D1AFE70023ACE70A498C468A
:103BA00029006344D1409D400A00290098404D1EE1
:103BB000A94101431143E4E733009DE7FE070000FC
:103BC00080FCFFFFA2FCFFFF82FCFFFF8446101C6D
:103BD00062468C46191C634600E0C0461FB500F0E3
:103BE000FFF8002801D40021C8421FBD10B500F025
:103BF00049F84042013010BD10B500F0F1F800283E
:103C000001DB002010BD012010BDC04610B500F042
:103C1000E7F8002801DD002010BD012010BDC046DE
:103C200010B500F06BF8002801DC002010BD012069
:103C300010BDC04610B500F061F8002801DA002080
:103C400010BD012010BDC0461C2101231B04984259
:103C500001D3000C10391B0A984201D3000A08391D
:103C60001B09984201D30009043902A2105C4018D4
:103C70007047C04604030202010101010000000078
:103C800000000000F0B54F464646D64694469146A1
:103C90001A03120B184DC0B54C000F0392465A0080
:103CA000060080463F0B0120640DC90F520DDB0F4B
:103CB000AC420AD0AA4203D0944201D157450DD05C
:103CC0001CBC90469946A246F0BD3D003543F7D155
:103CD000A242F5D1524665462A43F1D10120C8459A
:103CE000EED1994206D0002CEAD13E433000461E68
:103CF000B041E5E70020E3E7FF070000F0B54E46DE
:103D000045465746DE4604001800E0B516001B0382
:103D10001B0B324D0F034A0099464300A446B046A0
:103D20003F0B520DC90F5B0DC00FAA4229D0AB4209
:103D300018D0002A2AD13C43A34665426541002B96
:103D400002D14C46264327D0002D15D1814228D0E0
:103D500002200139084001383CBC90469946A246F1
:103D6000AB46F0BD4D462E432FD1002AEED13C4349
:103D700065426541002DE9D00028EDD10120404287
:103D8000EAE73D00254320D19342EBD0002BDDD163
:103D90004C462643DAD1DBE75B460020002BDBD024
:103DA000D6E79A420ADCE7DB4F45D1D810D0002095
:103DB0004F45D1D20029E1D00800CDE74342584118
:103DC0000223404218400138C6E702204042C3E7C0
:103DD000C445BDD80020C445BED2EBE7FF070000B4
:103DE000F0B54E4645465746DE4604001800E0B59D
:103DF00016001B031B0B314D0F034A00994643006D
:103E0000A446B0463F0B520DC90F5B0DC00FAA422E
:103E100011D0AB4214D0002A2FD13C43A3466542B7
:103E20006541002B14D14C46264311D15B4600203E
:103E3000002B17D010E03D00254312D193421CD136
:103E40004D462E430DD1002A04D13C4365426541C5
:103E5000002D0DD1814216D00220013908400138D1
:103E600000E002203CBC90469946A246AB46F0BD1D
:103E70000028F7D101204042F4E7002BEAD14C465C
:103E80002643E7D1E8E79A4206DD43425841022340
:103E9000404218400138E5E79A42E9DB4F45DBD85C
:103EA00006D000204F45DDD20029E3D00800D9E735
:103EB000C445D1D80020C445D4D2F5E7FF0700009F
:103EC0008023C2685B021343C3607047C368024A21
:103ED0001340C3607047C046FFFFFEFF01290CD0AE
:103EE00002290FD000290CD1C3680A4A1340C360CD
:103EF0008023C2685B02134302E0C368064A134092
:103F0000C3607047C368054A1340C3608023C2681A
:103F10009B01F0E7FFDFFFFFFFDFFEFFFFFFFEFF7C
:103F200010B5054BC4681C400C43C460C36803490A
:103F30000B401343C36010BD3FFEFFFFFFF3FFFFC5
:103F4000C368024A1340C3607047C046FFF3FFFFD7
:103F50008023426813434360704780224368934341
:103F60004360704700680006C00F704780230360FD
:103F70007047082342681343436070470822436830
:103F800093434360704700680007C00F70470823E1
:103F90000360704703699B009B080B4303617047F4
:103FA000F7B5002901D18162F7BD01231D00147806
:103FB0000093A540002426009B1A0193019B9B18A7
:103FC000DBB2994206D80423002E13D0002C18D05F
:103FD00001F03CFE5378009F9F403D43177801322B
:103FE000BC469C45BF4163459B417F425B423E438B
:103FF0001C43E3E7002C04D0C2681343C36085620E
:10400000D2E7C2689A43C260F9E7072319404161C9
:10401000704700008023034A5B0411680B43136060
:104020007047C04608270140024A034913680B4005
:104030001360704708270140FFFFFFFE80231B0627
:10404000836070478368002BFCDB70478023C26865
:104050001B041343C360C368014A1340C360704725
:10406000FFFFBFFFC368054A890613400B43C360C7
:10407000C023C2681B041343C3607047FFFFFF8364
:10408000C368024A1340C3607047C046FFFF7FFF0A
:10409000044A0904036A1140034A134019430162A8
:1040A0007047C0460000FF0FFFFF00F0036A0905DC
:1040B0001B0B090D1B030B4303627047006840078D
:1040C000C00F704700680007C00F70470123826867
:1040D000134383607047012300681840704710B590
:1040E0000400FFF7F3FF012322681A42FCD010BD41
:1040F000836801209843704710B50400FFF7F8FF6C
:10410000002810D121000423A26808311A4206D0E9
:104110001022A0680243A2600A681A42FCD102235E
:10412000A2681343A36010BD10B50400FFF7E4FFBD
:104130002000FFF7DDFF0028FAD010BD8023826841
:104140001B061343836070478068C00F704710B52B
:104150000400FFF7F3FFA368002BFCDB10BD8023F6
:10416000C2689B011343C36070470000C368024AE2
:104170001340C3607047C046FFDFFFFF1822C368CB
:1041800093430B43C36070472023C2681343C3604B
:1041900070472022C3689343C36070470123C268FD
:1041A0001343C36070470122C3689343C3607047E1
:1041B00010234268134343607047102243689343BF
:1041C000436070470068C006C00F7047102303604B
:1041D00070470423426813434360704704224368D6
:1041E000934343607047006C704700008023034A8C
:1041F0001B0411680B4313607047C0460827014039
:10420000024A034913680B401360704708270140B6
:10421000FFFF7FFF8023034ADB0311680B4313601A
:104220007047C04608270140024A034913680B4003
:104230001360704708270140FFFFBFFF0423826817
:104240001343836070470223C2681343C3607047FF
:104250000222C3689343C36070478023C268DB01B6
:104260001343C36070470000C368024A1340C36031
:104270007047C046FFBFFFFF01290CD0022913D0B1
:10428000002907D10A4A136803431360094A1368D7
:10429000834313607047064A136883431360054ADB
:1042A000136818431060F5E7014A13680343F5E704
:1042B000080401400C040140044A136803431360DE
:1042C000034A1368184310607047C0460004014059
:1042D00004040140044A136883431360034A1368CB
:1042E000834313607047C04600040140040401404A
:1042F000014B18607047C04614040140014B1B6815
:104300001840704714040140194BF7B5CE1873429A
:104310005E41002201907600012423009340019821
:10432000184217D0134D0323A94205D016D8124DB9
:104330002300A94200D03300104803259408241814
:104340000F201540AD00A840AB40A400276887436C
:104350003B4323600132102ADED1F7BD084C042311
:10436000A142E9D0074C0023A142E5D10533E3E7A0
:1043700000F8FFB7000C004800040048024000109D
:1043800000100048001400481023024A11680B4333
:1043900013607047002002401021024A13688B43CB
:1043A00013607047002002400721034A13688B43C3
:1043B000034313607047C04600200240024B034A8B
:1043C0001A60034A1A6070470820024023016745BB
:1043D000AB89EFCD81617047090481617047006945
:1043E00008407047426913000B401B049143194376
:1043F00081617047006980B27047416170478023D6
:104400005B020B43C361C161C361C369C369704788
:10441000F0B585B001910327002102920393026851
:10442000C368039C01250C412C420AD03D004C007E
:10443000A540019EAA43AB43029DA640A54032433E
:104440002B4301311029ECD10260C36005B0F0BDEF
:10445000F7B50192012916D14168194300240126BC
:104460000327416081681D002541354206D03A008E
:104470006500AA409143019AAA4011430134102CCF
:10448000F1D18160F7BD41689943E7E7F7B50023B3
:1044900001260F27046A0091416A0192019D1D4186
:1044A000354206D03A009D00AA409443009AAA40A3
:1044B00014430133082BF1D101260F27019A1A4129
:1044C000324207D03A009D00203DAA409143009A15
:1044D000AA4011430133102BF0D104624162F7BDB1
:1044E000064B10B5984203D0054B984204D010BD3E
:1044F000044800F005FDFAE70348FAE700540040DD
:104500000058004015020000160200000123026856
:1045100013430360704701220368934303607047AD
:10452000802342689B0113434360704780234268A5
:10453000DB011343436070472023C2691343C36107
:1045400070470000490081608368024A134083601D
:104550007047C046FFFBFFFF8023DB000B438360F7
:10456000704781627047406AC0B270470368024A70
:10457000134003607047C046FFEFFFFF80230268CF
:104580005B011343036070470368034A0902134049
:104590000B4303607047C046FFF0FFFF0369090744
:1045A0001B011B090B430361704700000369034AA9
:1045B000090513400B4303617047C046FFFF0FFF1F
:1045C0000369034A090413400B4303617047C04663
:1045D000FFFFF0FF0369034A090213400B43036125
:1045E0007047C046FF00FFFFFF22036993430B4360
:1045F000036170470368024A134003607047C04676
:10460000FFFFFDFF802302689B0213430360704796
:104610004368024A134043607047C046FFF7FFFFFC
:10462000802342681B01134343607047FF224368A5
:1046300049001140013A9343194341607047436870
:1046400089059B0A890D9B020B434360704700005C
:104650004368024A134043607047C046FFFBFFFFB8
:1046600080234268DB001343436070474368034A7A
:10467000090413400B4343607047C046FFFF00FF2F
:1046800040688004C00F7047802342689B04134336
:10469000436070474368024A134043607047C04616
:1046A000FFFFFFFD8069C006C00F704780690004EE
:1046B000C00F704780698007C00F7047806940064F
:1046C000C00F704780694007C00F704703680B43F5
:1046D0000360704703688B43036070478023026860
:1046E0001B021343036070470368024A13400360D0
:1046F0007047C046FF7FFFFF80230268DB01134342
:10470000036070470368024A134003607047C04665
:10471000FFBFFFFFF7B504000F0015001E1E4ED0AF
:10472000FFF784FF2000FFF793FF20003100FFF721
:104730009DFF099B2000002B2ED0FFF7ABFF200030
:10474000FFF7EEFEAE19AE4229D1099B002B39D0FE
:104750002000FFF7B3FF0028FAD039002000FFF750
:1047600065FF2000FFF77CFF09992000FFF77EFF1F
:104770002000FFF7D5FE2000FFF786FF089D099B6C
:10478000EE18AE421ED02000FFF79CFF0028FAD0A2
:10479000636A2B700135F4E7FFF776FFCFE720005F
:1047A000FFF788FF01902000FFF77CFF0028FAD177
:1047B000019B002BF3D02B780135A362C3E7099B43
:1047C000002BCAD1F7BD10B50400012914D002296D
:1047D00027D09208013AD1B2FFF7E0FE1321200062
:1047E000FFF702FF0F212000FFF7F4FE0221200057
:1047F000FFF7E6FE042111E0D208013AD1B2FFF73B
:10480000CDFE09212000FFF7EFFE03212000FFF776
:10481000E1FE03212000FFF7D3FE03212000FFF774
:10482000C5FE10BD8023034A5B0011680B43136073
:104830007047C04600700040024A034913680B40AD
:104840001360704700700040FFFEFFFFE022054B41
:104850001968914319601A680243102010431860C8
:104860007047C046007000401021024A13688B4315
:1048700013607047007000400823024A11680B4320
:1048800013607047007000400423024A11680B4314
:1048900013607047007000400223024A11680B4306
:1048A00013607047007000400221024A13688B4376
:1048B00013607047007000400121024A13688B4367
:1048C00013607047007000400123024A11680B43D7
:1048D00013607047007000408023034A5B0011683A
:1048E0000B4313607047C04604700040024A0349FE
:1048F00013680B401360704704700040FFFEFFFF19
:104900000120024B1B689B089843704704700040CD
:10491000024B18688007C00F7047C0460470004003
:10492000024B1868012318407047C04604700040CD
:1049300000B506280BD80C4B8022196801F08AF9C3
:10494000080A0C0E12100400D2030A431A6000BDBC
:104950009203FAE7D202F8E71203F6E75203F4E70C
:104960009202F2E75202F0E70810024000B5062872
:104970000BD80C4B8022196801F06CF9080A0C0E58
:1049800012100400D2010A431A6000BD9201FAE736
:10499000D200F8E71201F6E75201F4E79200F2E7DD
:1049A0005200F0E70810024000B506280AD80C4B68
:1049B0001A6801F04FF9080A0C0E12100400094998
:1049C0000A401A6000BD0849FAE70849F8E70849B3
:1049D000F6E70849F4E70849F2E70849F0E7C04676
:1049E00008100240FFFFBFFFFFFFDFFFFFFFFBFFDD
:1049F000FFFFF7FFFFFFEFFFFFFFFDFFFFFFFEFFE2
:104A000010B506281CD801230E4A01F023F9080B23
:104A10000E111714040010688009184010BD1068AA
:104A20004009FAE710688008F7E71068C008F4E763
:104A300010680009F1E710684008EEE71068ECE73D
:104A400001F004F9081002408023034A1B04116896
:104A50000B4313607047C04608100240024B1868B1
:104A60000006C00F7047C04608100240002300B582
:104A700006280AD8013301F0EDF80A0E10121816B4
:104A800004000B4A1068400C0340180000BD084A9F
:104A900010684008F8E7074AFAE7064AF2E7054ACD
:104AA0001068400EF0E7044AF2E7044AF0E7C04617
:104AB0003410024000100240201002402410024036
:104AC00010B504002000FFF7D1FF0028FAD010BD78
:104AD00000B506280BD801F0BDF80B0F1117151300
:104AE00004000C4A802311685B020B43136000BD75
:104AF000084A01231168F8E7074AFAE7064AF1E78E
:104B0000064AF6E7064AF4E78023034A5B04116885
:104B1000EBE7C04634100240001002402010024073
:104B20002410024000B506280AD801F093F80A0FB5
:104B3000110915130400094A136809490B40136051
:104B400000BD064A012113688B43F8E7054AF9E7DF
:104B5000044AF1E7044AF5E7044AF3E73410024057
:104B6000FFFFFEFF00100240201002402410024010
:104B70008023034A1B0311680B4313607047C04630
:104B800000100240024A034913680B40136070474B
:104B900000100240FFFFF7FF013800B5052812D8CA
:104BA00001F058F803091211111903210C4A136876
:104BB0008B43136007E0032209490B6893431A00F3
:104BC000012313430B6000BD032205490B68934387
:104BD0001A000223F5E70323014A11680B43E8E7B3
:104BE00004100240032802D0062806D07047802314
:104BF000044A11680B431360F8E78021014A1368E7
:104C00008B43F8E7301002408023034A1B021168EF
:104C10000B4313607047C04620100240024A03490C
:104C200013680B401360704720100240FF7FFFFFA6
:104C3000042813D0052808D0022805D1C0230B4A28
:104C40009B0011680B43136070470849084A0B68C2
:104C50001A4080235B0013430B60F5E70349044AC5
:104C60000B681A4080239B00F5E7C04620100240E5
:104C7000FFFCFFFF034A044913680B400343136022
:104C80007047C04604100240FFFFC3FF034A0449B7
:104C9000136800040B400343136070470410024084
:104CA000FFFFFEFF034A0449136840040B4003431F
:104CB0001360704704100240FFFFFDFF034A0449E0
:104CC00013680B40034313607047C0460410024052
:104CD000FFF8FFFFF021034A13688B43034313607F
:104CE0007047C046041002400F21034A13688B43EB
:104CF000034313607047C0462C1002400C220B4B3C
:104D000010B51B681340082B0BD006D8002B0AD017
:104D10000220042B04D000F099FF06200C2BFAD1BE
:104D200010BD0320FCE70120FAE7C0460410024052
:104D3000044B984204D11021034A13688B4313603B
:104D40007047C0460054004030100240044B984267
:104D500004D11023034A11680B4313607047C04607
:104D60000054004030100240024B186810231840D5
:104D70007047C04630100240034B03201B681B06DF
:104D800000D400187047C0463010024070B50324AC
:104D900001250220FFF79CFE0220FFF791FE144A36
:104DA00000201368A3432B431360FFF793FF0020F9
:104DB000FFF784FFFFF7E8FA2800FFF7F5FA8020F5
:104DC0004003FFF757FF2800FFF760FF0020FFF7C1
:104DD00069FF2000FFF77CFE2000FFF771FE200036
:104DE000FFF7DAFE034B044A1360044A136070BDF8
:104DF00004100240006CDC020C00002008000020BF
:104E000010B50120FFF764FE0120FFF759FE0120D5
:104E1000FFF7C2FE0020FFF75DFF0020FFF74EFF07
:104E2000FFF7B2FA0120FFF7BFFAA0208003FFF7D7
:104E300021FF0020FFF72AFF0320FFF749FE032090
:104E4000FFF73EFE0320FFF7A7FE034B034A136064
:104E5000034A136010BDC046006CDC020C00002049
:104E60000800002010B50620FFF732FE0620FFF7ED
:104E700027FE0020FFF72EFF0020FFF71FFFFFF7A0
:104E800083FA0120FFF790FA0620FFF785FE034B17
:104E9000034A1360034A136010BDC046006CDC0275
:104EA0000C0000200800002003680B4303607047DB
:104EB00003688B43036070470368194301607047C0
:104EC00003688B4303607047054B4209D2181F23C8
:104ED00018401E3B834011680B4313607047C04667
:104EE000001002401F21430908401E398140034A37
:104EF0009B181A688A431A607047C0460010024027
:104F0000064A43099B181F2210401E3A8240196826
:104F100011431960196891431960704700100240ED
:104F200010B5FFF7D1FF10BD10B5FFF7DBFF10BDC7
:104F3000034A0449136800060B400343136070479B
:104F400004100240FFFFFFF0022802D0052807D01E
:104F500070478023044ADB0211680B431360F7E7B4
:104F6000024A04231168F8E70010024020100240B2
:104F7000022802D0052806D07047054A0549136863
:104F80000B401360F8E70421034A13688B43F8E7EA
:104F900000100240FFFFFBFF20100240044B4004C2
:104FA000400C18601A680904114319607047C04624
:104FB00010280040CA222021064B1A60773A1A6056
:104FC000054A10688843106010680842FCD0FF2230
:104FD0001A607047242800400C280040CA22024B67
:104FE0001A60773A1A60704724280040FF22014B6C
:104FF0001A607047242800400C4B30B51A680C4CDE
:105000000C4D22401A6004222C681442FCD00A4A3B
:10501000106007201A6882431A601A6811438022C0
:1050200019601968D2000A431A6030BD0828004090
:10503000FFFBFFFF0C28004014280040024A0349F0
:1050400013680B40136070470C280040FFFBFFFF04
:10505000C3680B43C3607047C3688B43C36070472A
:105060000369C26808001A4010400023114203D0AF
:1050700080228A425B41D8B2704700690840411ED5
:105080008841C0B27047C9430161704730B50468B8
:10509000034D1A432C400A432243026030BDC046F0
:1050A0008FFCFFFF0368054A1340C02203600368BA
:1050B00092001140194301607047C046FFFCFFFF9A
:1050C0008023026813430360704780220368934380
:1050D00003607047602203681140934303600368D4
:1050E00019430160704710220368934303607047BF
:1050F00010230268134303607047082302681343B8
:1051000003607047082203689343036070470422DA
:1051100003689343036070470423026813430360EA
:1051200070470222036893430360704702230268BA
:105130001343036070470123026813430360704701
:1051400001220368934303607047FE224368D20143
:105150001140194341607047FE224368D20111405B
:105160008B4343607047802342681343436070471A
:1051700080224368934343607047702342689A4398
:10518000426043680B43436070470822436893437F
:105190004360704708234268134343607047042309
:1051A000426813434360704704224368934343605B
:1051B00070470123426813434360704701224368EC
:1051C0009343436070478162704701637047C162D7
:1051D0007047030000B50800062909D800F03AFD21
:1051E000040809080D081200802299690A439A618F
:1051F00000BD802299691202F8E78022D9690A432A
:10520000DA61F5E78022D9691202F8E7030000B5F8
:105210000800062909D800F01DFD040809080D083A
:10522000120080219A698A439A6100BD9A690649F1
:105230000A40F9E78021DA698A43DA61F5E7DA6939
:1052400001490A40F9E7C046FF7FFFFF030000B5B0
:105250000800062909D800F0FDFC040809080D081B
:105260001200042299690A439A6100BD802299695B
:10527000D200F8E70422D9690A43DA61F5E780220F
:10528000D969D200F8E70000030000B5080006293C
:1052900009D800F0DFFC040809080D0812000421F9
:1052A0009A698A439A6100BD9A6906490A40F9E7FA
:1052B0000421DA698A43DA61F5E7DA6901490A40CB
:1052C000F9E7C046FFFBFFFF030000B50800062911
:1052D0001CD800F0BFFC041B2F1B5C1B86000320A6
:1052E00099698143996199699961702198698843A5
:1052F0009861072A0AD8100000F0ACFC2F04090CB2
:105300000F121518102299690A439A6100BD2022D4
:105310009969F9E730229969F6E740229969F3E73C
:1053200050229969F0E760229969EDE79A69114383
:105330009961EBE79969424801409961996941484F
:105340009961996901409961072ADFD8100000F03E
:1053500081FC04060A0E1115181B9A69D5E78022F4
:1053600099695201D0E7802299699201CCE7C02265
:105370009969FAE780229969D201C5E7A022996963
:10538000FAE7C0229969F7E7E0229969F4E7032078
:10539000D9698143D961D969D9617021D8698843B4
:1053A000D861072AB2D8100000F054FC2F04080B73
:1053B0000E1114171022D9690A4327E02022D96957
:1053C000FAE73022D969F7E74022D969F4E7502299
:1053D000D969F1E76022D969EEE7DA691143D96149
:1053E00094E7D96916480140D961D9691548D9614E
:1053F000D9690140D961072A00D987E7100000F078
:1054000029FC04070B0F1216191CDA69DA617DE713
:105410008022D9695201CFE78022D9699201CBE776
:10542000C022D969FAE78022D969D201C4E7A02253
:10543000D969FAE7C022D969F7E7E022D969F4E728
:10544000FFFCFFFFFF8FFFFF030000B508000629E8
:1054500009D800F0FFFB040809080D081200082213
:1054600099690A439A6100BD802299691201F8E79F
:105470000822D9690A43DA61F5E78022D969120165
:10548000F8E70000030000B50800062909D800F07D
:10549000E1FB040809080D08120008219A698A43F3
:1054A0009A6100BD9A6906490A40F9E70821DA695C
:1054B0008A43DA61F5E7DA6901490A40F9E7C0464B
:1054C000FFF7FFFF030000B50800062909D81A6A94
:1054D00000F0C0FB040F08110A130D0002218A43DB
:1054E0001A6200BD2021FAE705490A40F8E705499C
:1054F000FBE70821F3E78021F1E70349F5E7C04620
:10550000FFFDFFFFFFDFFFFFFFF7FFFF030000B519
:105510000800062909D8196A00F09CFB041008123B
:105520000A140D0002220A431A6200BD2022FAE783
:1055300080229200F7E780229201F4E70822F2E746
:105540008022F0E780221201EDE7030000B5080099
:10555000062909D8196A00F07DFB041008120A1404
:105560000D0001220A431A6200BD1022FAE78022D0
:105570005200F7E780225201F4E70422F2E74022CA
:10558000F0E78022D200EDE7030000B5080006290D
:1055900009D81A6A00F05EFB040F08110A130D0007
:1055A00001218A431A6200BD1021FAE705490A4029
:1055B000F8E70549FBE70421F3E74021F1E7034958
:1055C000F5E7C046FFFEFFFFFFEFFFFFFFFBFFFF1A
:1055D000030000B5080006290AD88022596800F0A7
:1055E00039FB04080A0C0E10120052000A435A60DC
:1055F00000BD9200FAE7D200F8E71201F6E7520187
:10560000F4E79201F2E7D201F0E70000030000B5F1
:105610000800062909D85A6800F01CFB04080A0C87
:105620000E10120007490A405A6000BD0649FAE709
:105630000649F8E70649F6E70649F4E70649F2E7BE
:105640000649F0E7FFFEFFFFFFFDFFFFFFFBFFFF47
:10565000FFF7FFFFFFEFFFFFFFDFFFFFFFBFFFFFD2
:10566000030000B50800062906D800F0F3FA040587
:10567000060508050A005A6300BD9A63FCE7DA6371
:10568000FAE71A64F8E78023426C1B021343436471
:1056900070470000436C024A134043647047C046A1
:1056A000FF7FFFFF8023426CDB011343436470479D
:1056B000436C024A134043647047C046FFBFFFFF7C
:1056C0008023426C9B01134343647047436C024A3E
:1056D000134043647047C046FFDFFFFF8023426CE6
:1056E0005B01134343647047436C024A13404364B5
:1056F0007047C046FFEFFFFF8023426C1B0113433E
:1057000043647047436C024A134043647047C04689
:10571000FFF7FFFF8023426CDB00134343647047B5
:10572000436C024A134043647047C046FFFBFFFFCF
:10573000436C0B434364704710B5FFF7F9FF10BD8E
:1057400043690B4343617047406A70474162704749
:10575000030000B5080003290BD800F07BFA020B08
:10576000121BF020996912018143996199690A43DA
:105770009A6100BD99690B481203014099619969CA
:10578000F5E7F020D96912018143D961D9690A434B
:10579000DA61EEE7D969034812030140D961D9699A
:1057A000F5E7C046FF0FFFFF030000B5080003291F
:1057B0000BD800F04FFA020B121B0C2099699200D3
:1057C0008143996199690A439A6100BD99690B48BF
:1057D0009202014099619969F5E70C20D96992001C
:1057E0008143D961D9690A43DA61EEE7D96903488F
:1057F00092020140D961D969F5E7C046FFF3FFFF86
:105800000300080030B50321022405000A40A54327
:10581000012D03D1541E012C00D84A4003280AD878
:1058200000F018FA020A111903209969814399615D
:1058300099690A439A6130BD99690A481202014088
:1058400099619969F5E70320D9698143D961D969DB
:105850000A43DA61EFE7D969024812020140D961CF
:10586000D969F5E7FFFCFFFF012389008B40026A3D
:10587000134303627047012289008A40036A9343FD
:10588000036270478368044A090213408360836897
:10589000194381607047C046FFF0FFFF8368044AE8
:1058A0000903134083608368194381607047C046D1
:1058B000FFCFFFFF002905D0802382681B0213431E
:1058C000836070478368014A1340F9E7FF7FFFFF59
:1058D000072283689343836083681943816070471C
:1058E00070228368934383608368194381607047A3
:1058F000044B10B51B6804004808C018FBF75EFB9A
:10590000E06010BD0C000020082904D10368044A9F
:10591000134003607047802302685B011343F8E77C
:10592000FFEFFFFF4368024A13400B434360704799
:10593000FFCFFFFF0368024A13400B430360704729
:10594000FFF9FFFF0C22036893430B43036070478A
:105950008368024A13400B4383607047FFFCFFFFDC
:1059600001230268134303607047012203689343D5
:105970000360704770B50D00040000F09FF8290027
:10598000200000F093F870BD10B5040000F09BF803
:10599000200000F08FF810BD40238268134383601D
:1059A00070474022836893438360704780238268F6
:1059B00013438360704780228368934383607047FA
:1059C0002023026813430360704720220368934337
:1059D000036070478023026813430360704780228E
:1059E0000368934303607047012382681343836015
:1059F0007047012283689343836070478023426825
:105A0000DB021343436070474368024A134043601C
:105A10007047C046FFFFFBFF802342689B02134391
:105A2000436070474368024A134043607047C04672
:105A3000FFFFFDFF802342685B0213434360704712
:105A40004368024A134043607047C046FFFFFEFFB1
:105A50000823826813438360704708228368934356
:105A600083607047436909031B0D1B05090B19432C
:105A700041617047802342681B04134343607047B1
:105A80004368024A134043607047C046FFFF7FFFF0
:105A900080230268DB041343036070470368024AF3
:105AA000134003607047C046FFFFFFFBC905C90DE7
:105AB00081627047406AC005C00D70478023C2698B
:105AC0001A42FCD070472023C2691A42FCD07047AA
:105AD000C0690840411E8841C0B27047FEE7704768
